:100000001CC036C035C034C033C032C031C030C06F
:100010002FC02EC02DC02CC02BC02AC029C028C084
:1000200027C026C025C079C164C165C166C167C14A
:1000300068C169C16AC16BC16CC111241FBECFE523
:10004000D4E0DEBFCDBF12E0A0E6B0E0EEE6FBE01C
:1000500002C005900D92A23AB107D9F722E0A2EAB8
:10006000B2E001C01D92A93BB207E1F784D47DC57F
:10007000C7CF95B3907F282F22952F70922B95BBD9
:10008000AC98AD9A94E09A95F1F7AD98E4E1F1E07F
:100090003197F1F7000095B3907F8F70892B85BB66
:1000A000AD9AF4E0FA95F1F7AD9889E995E10197F9
:1000B000F1F700C0089595B3907F282F22952F70F7
:1000C000922B95BBAC9AAD9A94E09A95F1F7AD98C6
:1000D000E4E1F1E03197F1F7000095B3907F8F7084
:1000E000892B85BBAD9AF4E0FA95F1F7AD9889E9D3
:1000F00095E10197F1F700C008958FEF84BB8FEF72
:1001000097ED0197F1F700C0000082E0B2DF88E2CE
:10011000B0DF8CE0AEDF81E0ACDF82E8AADF0895DB
:10012000CF93DF93EC018881882329F02196C3DFE8
:1001300089918111FCCFDF91CF910895CF93DF9307
:10014000EA01813029F4862F8F70806892DF06C023
:10015000823021F4862F8F70806C8BDFCE01E0DF40
:10016000DF91CF91089581E084DF86E690E20197E8
:10017000F1F7000080E87DDF089581B3806F81BBD7
:10018000BB9882B38F7082BB88B38F6088BB88B303
:100190008F7088BB000086B38F708093B1028F3060
:1001A000B1F78FEF97ED0197F1F700C0000086B32C
:1001B0008F708093B1028F30A1F399E929E581E036
:1001C000915020408040E1F7000086B38F7080930B
:1001D000B1028F3031F382B3806E82BB949888B3C2
:1001E0008F6088BB000086B38F708093B1028F3020
:1001F00019F01092B20236C082B3806D82BB95981E
:1002000088B38F6088BB000086B38F708093B10283
:100210008F3021F081E08093B20224C082B3806BE2
:1002200082BB969888B38F6088BB000086B38F70BE
:100230008093B1028F3021F082E08093B20212C02D
:1002400082B3806782BB979888B38F6088BB0000B9
:1002500086B38F708093B1028F3009F48ECF83E024
:100260008093B2028091B1028E3071F4E091B202BB
:10027000F0E0EE0FFF1FEE0FFF1FEE0FFF1FE05A23
:10028000FF4F8081918108958D3071F4E091B20229
:10029000F0E0EE0FFF1FEE0FFF1FEE0FFF1FE05A03
:1002A000FF4F8281938108958B3071F4E091B20207
:1002B000F0E0EE0FFF1FEE0FFF1FEE0FFF1FE05AE3
:1002C000FF4F848195810895E091B202F0E0EE0F36
:1002D000FF1FEE0FFF1FEE0FFF1FE05AFF4F86813B
:1002E000978108958A309105B0F4FC01ED5EFF4FCF
:1002F000099481E3089582E3089583E3089584E3F4
:10030000089585E3089586E3089587E3089588E3D3
:10031000089589E3089588E7089580E3089581B3F7
:10032000806F81BBBB9882B38F7082BB88B38F60B4
:1003300088BB88B38F7088BB000086B38F708093B2
:10034000B1028F30B1F78FEF97ED0197F1F700C051
:10035000000086B38F708093B1028F30A1F399E9CA
:1003600029E581E0915020408040E1F7000086B30C
:100370008F708093B1028F3031F382B3806E82BB75
:10038000949888B38F6088BB000086B38F70809389
:10039000B1028F3019F01092B20236C082B3806D74
:1003A00082BB959888B38F6088BB000086B38F703E
:1003B0008093B1028F3021F081E08093B20224C09B
:1003C00082B3806B82BB969888B38F6088BB000035
:1003D00086B38F708093B1028F3021F082E08093DA
:1003E000B20212C082B3806782BB979888B38F60D5
:1003F00088BB000086B38F708093B1028F3009F400
:100400008ECF83E08093B2028091B1028E3059F496
:10041000E091B202F0E0EE0FFF1FEE0FFF1FE05879
:10042000FF4F808108958D3059F4E091B202F0E0E1
:10043000EE0FFF1FEE0FFF1FE058FF4F8181089561
:100440008B3059F4E091B202F0E0EE0FFF1FEE0F97
:10045000FF1FE058FF4F82810895E091B202F0E063
:10046000EE0FFF1FEE0FFF1FE058FF4F838108952F
:10047000A0E9B0E0E5EBF2E024E930E040E050E054
:100480009D918081981302C04F5F5F4F3196A217F4
:10049000B307B1F781E090E04430510511F080E0FE
:1004A00090E00895CF93DF93C0E0D0E038DFFE0105
:1004B000EB54FD4F80838081FEDD2196C430D10551
:1004C000A9F7DF91CF910895EF92FF921F93CF93F9
:1004D000DF930F2EF0E9EF2EF0E0FF2EF02DC0E0BD
:1004E000D0E01DDF182FF70181937F01682FCE0127
:1004F0002FD3812FE0DD2196C430D10591F7DF9114
:10050000CF911F91FF90EF9008950F931F93CF937A
:10051000DF9300E910E0C0E0D0E0CE0111D3F80194
:1005200081938F012196C430D105B9F7DF91CF9126
:100530001F910F9108951816190664F4E2EAF2E08B
:100540009C012E553D4F5F9BFECF9CB19193E217CE
:10055000F307C9F782EA92E008951616170654F4D5
:10056000FC01680F791F91919CB95D9BFECFE61746
:10057000F707C9F70895CF93DF93CDB7DEB760973C
:100580000FB6F894DEBF0FBECDBF80E1E4E9F0E026
:10059000DE01119601900D928A95E1F760E170E01D
:1005A000CE010196DADF8CE090E0C5DF21E030E09B
:1005B000FC018185882311F020E030E0C9016096BC
:1005C0000FB6F894DEBF0FBECDBFDF91CF91089577
:1005D000CF93DF93CDB7DEB72C970FB6F894DEBF7D
:1005E0000FBECDBF8CE0E4EAF0E0DE011196019091
:1005F0000D928A95E1F76CE070E0CE010196ADDFD7
:100600008CE090E098DF21E030E0FC0181858111F1
:1006100002C020E030E0C9012C960FB6F894DEBF8E
:100620000FBECDBFDF91CF910895CF93DF93CDB7AC
:10063000DEB72D970FB6F894DEBF0FBECDBF8DE0AD
:10064000E0EBF0E0DE01119601900D928A95E1F762
:100650006DE070E0CE01019680DF8CE090E06BDF12
:1006600021E030E0FC018185882311F020E030E0BA
:10067000C9012D960FB6F894DEBF0FBECDBFDF9136
:10068000CF910895CF93DF93CDB7DEB72D970FB6F7
:10069000F894DEBF0FBECDBF8DE0EDEBF0E0DE01E4
:1006A000119601900D928A95E1F76DE070E0CE0110
:1006B000019653DF8CE090E03EDF21E030E0FC016A
:1006C0008681813011F020E030E0C9012D960FB60F
:1006D000F894DEBF0FBECDBFDF91CF910895CF93C9
:1006E000DF93CDB7DEB761970FB6F894DEBF0FBECC
:1006F000CDBF81E1EAECF0E0DE01119601900D92B0
:100700008A95E1F761E170E0CE01019626DF80E194
:1007100090E011DF21E030E0FC018185882311F0B9
:1007200020E030E0C90161960FB6F894DEBF0FBE3D
:10073000CDBFDF91CF910895CF93DF93CDB7DEB7D3
:100740002C970FB6F894DEBF0FBECDBF8CE0EBED5B
:10075000F0E0DE01119601900D928A95E1F76CE0D0
:1007600070E0CE010196F9DE8CE090E0E4DE21E05D
:1007700030E0FC018185882311F020E030E0C901E0
:100780002C960FB6F894DEBF0FBECDBFDF91CF9190
:100790000895CF93DF93CDB7DEB72F970FB6F894B8
:1007A000DEBF0FBECDBF9FEE998321E02A839FEF6E
:1007B0009B839C839D839E832F83188696E09987D5
:1007C0009A8792E09B871C868D871E86815F8F8724
:1007D0006FE070E0CE010196C0DE8CE090E0ABDE11
:1007E00021E030E0FC018185882311F020E030E039
:1007F000C9012F960FB6F894DEBF0FBECDBFDF91B3
:10080000CF91089587EE90E08BDCE2DE892BE9F74B
:10081000AADCC0980ADF892B09F0C09A60DF81301A
:10082000910541F4C19A9FDC47EF50E060E081E020
:1008300085DC0895892B61F496DCC19848E051E08D
:1008400060E081E07BDC45E151E060E082E076DC65
:1008500008950F931F93CF93DF938FE191E060DCB6
:100860004FE251E060E082E069DC87DCEC013ADDD8
:1008700022DC83DC8C0136DD1EDC2FEF8FED90E176
:10088000215080409040E1F700C00000CE01880F69
:10089000991FCC0FDD1FCC0FDD1FCC0FDD1F8C0F80
:1008A0009D1F800F911FDF91CF911F910F91089590
:1008B000CF93DF93CEDFEC0156DC83E391E030DCB5
:1008C00087DE892BE9F74FDCB0DE019719F480E46D
:1008D00091E026DC2FEF8FE793E421508040904099
:1008E000E1F700C000003FDC80E591E019DC4CE559
:1008F00051E060E082E022DC6BDE892BE9F733DC3B
:10090000C1DE019719F489E691E00ADC2CDC14DFE2
:100910000197E1F489E791E003DCC19A2FEF8FEDB5
:1009200090E1215080409040E1F700C000001BDCC6
:10093000CE012FDF019729F484E891E0F1DBC29A20
:1009400017C084E991E0ECDBC29812C088EA91E01C
:10095000E7DB46EB51E060E082E0F0DBC1982FEF8F
:100960008FED90E1215080409040E1F700C0000001
:10097000DF91CF910895C9DD80E284BBBEDB10BC5E
:100980008BE089B98AB188618AB98CEF81BBF3DDCC
:10099000892B09F0C09A00E010E0DCEF4EEB51E04B
:1009A00060E081E0CBDB43ED51E060E082E0C6DB5C
:1009B000B6DCC82FD8DBC13309F062C04EEB51E082
:1009C00060E081E0BBDB44EE51E060E082E0B6DB5A
:1009D000A6DCC82FC8DBC13369F581E04ADB47EFED
:1009E00051E060E081E0AADB46E352E060E082E0B3
:1009F000A5DB58DD3DDD0197A9F481E03ADB47E056
:100A000052E060E081E09ADB46E352E060E082E0A1
:100A100095DB5ADD81E02DDB47E152E060E081E0CB
:100A20008DDB24C081E025DB47E252E060E081E01D
:100A300085DB1CC0C233D1F481E01BDB47EF51E002
:100A400060E081E07BDB46E352E060E082E076DB61
:100A500029DD0EDD019719F486DB2ADF07C081E06E
:100A600008DB47E252E060E081E068DB2FEF8FEBCC
:100A700091E2215080409040E1F700C000008ECF0D
:100A8000C23309F08BCF81E0F4DA47E352E060E053
:100A900081E054DB47E452E060E082E04FDB3FDC82
:100AA0008133E1F581E0E5DA4CE552E060E081E098
:100AB00045DBF8DC81E0DDDADBDC9093B402809387
:100AC000B302019761F486E692E02ADB47E752E041
:100AD00060E082E033DBAD9A00E010E025C085E8FD
:100AE00092E01EDB45E151E060E082E027DBAD985B
:100AF0000F5F1F4F04301105B9F483E992E010DB5A
:100B00002FEF8FEB98EA215080409040E1F700C032
:100B1000000081E0AEDA00E010E006C0823321F48C
:100B200081E0A7DAD1BB6EDE2FEF8FEB91E221508F
:100B300080409040E1F700C0000081E09ADA2ECFBB
:100B4000E199FECF9FBB8EBBE09A99278DB30895A4
:100B5000262FE199FECF9FBB8EBB2DBB0FB6F8941D
:0E0B6000E29AE19A0FBE01960895F894FFCF35
:100B6E000100020003000A000400050006000B004D
:100B7E000700080009000C000D0000000E000F0019
:100B8E003132334134353642373839432A302344F3
:100B9E0038303531EF01FFFFFFFF01000713000072
:100BAE000000001BEF01FFFFFFFF01000301000526
:100BBE00EF01FFFFFFFF01000402010008EF01FF3C
:100BCE00FFFFFF01000402020009EF01FFFFFFFF1C
:100BDE000100080401000100FF010EEF01FFFFFFFD
:100BEE00FF010003050009506C6163652046696EC4
:100BFE00676572203A2900446F6F7220556E6C6FD4
:100C0E00636B6564203A290057726F6E67206669C0
:100C1E006E6765720054727920616761696E004576
:100C2E006E7465722074776F2064696769740069E9
:100C3E00643A00506C6163652066696E6765720088
:100C4E0066696E6765722073746F72656420310019
:100C5E00506C6163652073616D65200066696E6717
:100C6E00657220616761696E0066696E67657220E4
:100C7E0073746F726564203200476F742066696EFC
:100C8E006765720066696E6765722073617665646A
:100C9E00203A290066696E676572206E6F74207344
:100CAE0061766564203A280066696E676572206910
:100CBE0073206E6F740073616D65203A28003120C9
:100CCE00746F206368616E67652070617373776FF0
:100CDE007264003220746F20436F6E74696E756596
:100CEE002E2E2E003220746F206368616E67652091
:100CFE007072696E747300456E746572206F6C64E9
:100D0E0020706173733A00456E746572206E65775C
:100D1E0020706173733A0050617373206368616E63
:100D2E00676564203A290057726F6E672070617391
:100D3E0073776F726420003120746F20777269743C
:100D4E00652070617373003220746F207573652097
:100D5E0046696E6765727072696E74005061737366
:100D6E00776F72643A00436F7272656374207061BC
:100D7E007373203A292900446F6F7220756E6C6F61
:100D8E00636B65640057726F6E67205061737320DA
:100D9E003A28005761697420666F7220352073659A
:020DAE006300E0
:00000001FF
